{
  "contractName": "UniversityToken",
  "abi": [
    {
      "inputs": [],
      "stateMutability": "nonpayable",
      "type": "constructor"
    },
    {
      "inputs": [
        {
          "internalType": "address",
          "name": "spender",
          "type": "address"
        },
        {
          "internalType": "uint256",
          "name": "allowance",
          "type": "uint256"
        },
        {
          "internalType": "uint256",
          "name": "needed",
          "type": "uint256"
        }
      ],
      "name": "ERC20InsufficientAllowance",
      "type": "error"
    },
    {
      "inputs": [
        {
          "internalType": "address",
          "name": "sender",
          "type": "address"
        },
        {
          "internalType": "uint256",
          "name": "balance",
          "type": "uint256"
        },
        {
          "internalType": "uint256",
          "name": "needed",
          "type": "uint256"
        }
      ],
      "name": "ERC20InsufficientBalance",
      "type": "error"
    },
    {
      "inputs": [
        {
          "internalType": "address",
          "name": "approver",
          "type": "address"
        }
      ],
      "name": "ERC20InvalidApprover",
      "type": "error"
    },
    {
      "inputs": [
        {
          "internalType": "address",
          "name": "receiver",
          "type": "address"
        }
      ],
      "name": "ERC20InvalidReceiver",
      "type": "error"
    },
    {
      "inputs": [
        {
          "internalType": "address",
          "name": "sender",
          "type": "address"
        }
      ],
      "name": "ERC20InvalidSender",
      "type": "error"
    },
    {
      "inputs": [
        {
          "internalType": "address",
          "name": "spender",
          "type": "address"
        }
      ],
      "name": "ERC20InvalidSpender",
      "type": "error"
    },
    {
      "anonymous": false,
      "inputs": [
        {
          "indexed": true,
          "internalType": "address",
          "name": "owner",
          "type": "address"
        },
        {
          "indexed": true,
          "internalType": "address",
          "name": "spender",
          "type": "address"
        },
        {
          "indexed": false,
          "internalType": "uint256",
          "name": "value",
          "type": "uint256"
        }
      ],
      "name": "Approval",
      "type": "event"
    },
    {
      "anonymous": false,
      "inputs": [
        {
          "indexed": true,
          "internalType": "address",
          "name": "from",
          "type": "address"
        },
        {
          "indexed": true,
          "internalType": "address",
          "name": "to",
          "type": "address"
        },
        {
          "indexed": false,
          "internalType": "uint256",
          "name": "value",
          "type": "uint256"
        }
      ],
      "name": "Transfer",
      "type": "event"
    },
    {
      "inputs": [
        {
          "internalType": "address",
          "name": "owner",
          "type": "address"
        },
        {
          "internalType": "address",
          "name": "spender",
          "type": "address"
        }
      ],
      "name": "allowance",
      "outputs": [
        {
          "internalType": "uint256",
          "name": "",
          "type": "uint256"
        }
      ],
      "stateMutability": "view",
      "type": "function",
      "constant": true
    },
    {
      "inputs": [
        {
          "internalType": "address",
          "name": "spender",
          "type": "address"
        },
        {
          "internalType": "uint256",
          "name": "value",
          "type": "uint256"
        }
      ],
      "name": "approve",
      "outputs": [
        {
          "internalType": "bool",
          "name": "",
          "type": "bool"
        }
      ],
      "stateMutability": "nonpayable",
      "type": "function"
    },
    {
      "inputs": [
        {
          "internalType": "address",
          "name": "account",
          "type": "address"
        }
      ],
      "name": "balanceOf",
      "outputs": [
        {
          "internalType": "uint256",
          "name": "",
          "type": "uint256"
        }
      ],
      "stateMutability": "view",
      "type": "function",
      "constant": true
    },
    {
      "inputs": [],
      "name": "decimals",
      "outputs": [
        {
          "internalType": "uint8",
          "name": "",
          "type": "uint8"
        }
      ],
      "stateMutability": "view",
      "type": "function",
      "constant": true
    },
    {
      "inputs": [
        {
          "internalType": "address",
          "name": "",
          "type": "address"
        }
      ],
      "name": "lastTransactionTimestamps",
      "outputs": [
        {
          "internalType": "uint256",
          "name": "",
          "type": "uint256"
        }
      ],
      "stateMutability": "view",
      "type": "function",
      "constant": true
    },
    {
      "inputs": [],
      "name": "name",
      "outputs": [
        {
          "internalType": "string",
          "name": "",
          "type": "string"
        }
      ],
      "stateMutability": "view",
      "type": "function",
      "constant": true
    },
    {
      "inputs": [],
      "name": "owner",
      "outputs": [
        {
          "internalType": "address",
          "name": "",
          "type": "address"
        }
      ],
      "stateMutability": "view",
      "type": "function",
      "constant": true
    },
    {
      "inputs": [],
      "name": "symbol",
      "outputs": [
        {
          "internalType": "string",
          "name": "",
          "type": "string"
        }
      ],
      "stateMutability": "view",
      "type": "function",
      "constant": true
    },
    {
      "inputs": [],
      "name": "totalSupply",
      "outputs": [
        {
          "internalType": "uint256",
          "name": "",
          "type": "uint256"
        }
      ],
      "stateMutability": "view",
      "type": "function",
      "constant": true
    },
    {
      "inputs": [
        {
          "internalType": "address",
          "name": "to",
          "type": "address"
        },
        {
          "internalType": "uint256",
          "name": "value",
          "type": "uint256"
        }
      ],
      "name": "transfer",
      "outputs": [
        {
          "internalType": "bool",
          "name": "",
          "type": "bool"
        }
      ],
      "stateMutability": "nonpayable",
      "type": "function"
    },
    {
      "inputs": [
        {
          "internalType": "address",
          "name": "from",
          "type": "address"
        },
        {
          "internalType": "address",
          "name": "to",
          "type": "address"
        },
        {
          "internalType": "uint256",
          "name": "value",
          "type": "uint256"
        }
      ],
      "name": "transferFrom",
      "outputs": [
        {
          "internalType": "bool",
          "name": "",
          "type": "bool"
        }
      ],
      "stateMutability": "nonpayable",
      "type": "function"
    },
    {
      "inputs": [
        {
          "internalType": "address",
          "name": "account",
          "type": "address"
        }
      ],
      "name": "getLastTransactionTimestamp",
      "outputs": [
        {
          "internalType": "string",
          "name": "",
          "type": "string"
        }
      ],
      "stateMutability": "view",
      "type": "function",
      "constant": true
    },
    {
      "inputs": [
        {
          "internalType": "address",
          "name": "account",
          "type": "address"
        }
      ],
      "name": "getTransactionSender",
      "outputs": [
        {
          "internalType": "address",
          "name": "",
          "type": "address"
        }
      ],
      "stateMutability": "view",
      "type": "function",
      "constant": true
    }
  ],
  "bytecode": "0x608060405234801562000010575f80fd5b506040518060400160405280601481526020017f556e697665727369747947726f7570546f6b656e0000000000000000000000008152506040518060400160405280600381526020017f554754000000000000000000000000000000000000000000000000000000000081525081600390816200008e919062000641565b508060049081620000a0919062000641565b505050620000e133620000b86200012760201b60201c565b600a620000c69190620008ae565b6107d0620000d59190620008fe565b6200012f60201b60201c565b3360055f6101000a81548173ffffffffffffffffffffffffffffffffffffffff021916908373ffffffffffffffffffffffffffffffffffffffff16021790555062000a47565b5f6012905090565b5f73ffffffffffffffffffffffffffffffffffffffff168273ffffffffffffffffffffffffffffffffffffffff1603620001a2575f6040517fec442f050000000000000000000000000000000000000000000000000000000081526004016200019991906200098b565b60405180910390fd5b620001b55f8383620001b960201b60201c565b5050565b5f73ffffffffffffffffffffffffffffffffffffffff168373ffffffffffffffffffffffffffffffffffffffff16036200020d578060025f828254620002009190620009a6565b92505081905550620002de565b5f805f8573ffffffffffffffffffffffffffffffffffffffff1673ffffffffffffffffffffffffffffffffffffffff1681526020019081526020015f205490508181101562000299578381836040517fe450d38c0000000000000000000000000000000000000000000000000000000081526004016200029093929190620009f1565b60405180910390fd5b8181035f808673ffffffffffffffffffffffffffffffffffffffff1673ffffffffffffffffffffffffffffffffffffffff1681526020019081526020015f2081905550505b5f73ffffffffffffffffffffffffffffffffffffffff168273ffffffffffffffffffffffffffffffffffffffff160362000327578060025f828254039250508190555062000371565b805f808473ffffffffffffffffffffffffffffffffffffffff1673ffffffffffffffffffffffffffffffffffffffff1681526020019081526020015f205f82825401925050819055505b8173ffffffffffffffffffffffffffffffffffffffff168373ffffffffffffffffffffffffffffffffffffffff167fddf252ad1be2c89b69c2b068fc378daa952ba7f163c4a11628f55a4df523b3ef83604051620003d0919062000a2c565b60405180910390a3505050565b5f81519050919050565b7f4e487b71000000000000000000000000000000000000000000000000000000005f52604160045260245ffd5b7f4e487b71000000000000000000000000000000000000000000000000000000005f52602260045260245ffd5b5f60028204905060018216806200045957607f821691505b6020821081036200046f576200046e62000414565b5b50919050565b5f819050815f5260205f209050919050565b5f6020601f8301049050919050565b5f82821b905092915050565b5f60088302620004d37fffffffffffffffffffffffffffffffffffffffffffffffffffffffffffffffff8262000496565b620004df868362000496565b95508019841693508086168417925050509392505050565b5f819050919050565b5f819050919050565b5f62000529620005236200051d84620004f7565b62000500565b620004f7565b9050919050565b5f819050919050565b620005448362000509565b6200055c620005538262000530565b848454620004a2565b825550505050565b5f90565b6200057262000564565b6200057f81848462000539565b505050565b5b81811015620005a6576200059a5f8262000568565b60018101905062000585565b5050565b601f821115620005f557620005bf8162000475565b620005ca8462000487565b81016020851015620005da578190505b620005f2620005e98562000487565b83018262000584565b50505b505050565b5f82821c905092915050565b5f620006175f1984600802620005fa565b1980831691505092915050565b5f62000631838362000606565b9150826002028217905092915050565b6200064c82620003dd565b67ffffffffffffffff811115620006685762000667620003e7565b5b62000674825462000441565b62000681828285620005aa565b5f60209050601f831160018114620006b7575f8415620006a2578287015190505b620006ae858262000624565b8655506200071d565b601f198416620006c78662000475565b5f5b82811015620006f057848901518255600182019150602085019450602081019050620006c9565b868310156200071057848901516200070c601f89168262000606565b8355505b6001600288020188555050505b505050505050565b7f4e487b71000000000000000000000000000000000000000000000000000000005f52601160045260245ffd5b5f8160011c9050919050565b5f808291508390505b6001851115620007af5780860481111562000787576200078662000725565b5b6001851615620007975780820291505b8081029050620007a78562000752565b945062000767565b94509492505050565b5f82620007c957600190506200089b565b81620007d8575f90506200089b565b8160018114620007f15760028114620007fc5762000832565b60019150506200089b565b60ff84111562000811576200081062000725565b5b8360020a9150848211156200082b576200082a62000725565b5b506200089b565b5060208310610133831016604e8410600b84101617156200086c5782820a90508381111562000866576200086562000725565b5b6200089b565b6200087b84848460016200075e565b9250905081840481111562000895576200089462000725565b5b81810290505b9392505050565b5f60ff82169050919050565b5f620008ba82620004f7565b9150620008c783620008a2565b9250620008f67fffffffffffffffffffffffffffffffffffffffffffffffffffffffffffffffff8484620007b8565b905092915050565b5f6200090a82620004f7565b91506200091783620004f7565b92508282026200092781620004f7565b9150828204841483151762000941576200094062000725565b5b5092915050565b5f73ffffffffffffffffffffffffffffffffffffffff82169050919050565b5f620009738262000948565b9050919050565b620009858162000967565b82525050565b5f602082019050620009a05f8301846200097a565b92915050565b5f620009b282620004f7565b9150620009bf83620004f7565b9250828201905080821115620009da57620009d962000725565b5b92915050565b620009eb81620004f7565b82525050565b5f60608201905062000a065f8301866200097a565b62000a156020830185620009e0565b62000a246040830184620009e0565b949350505050565b5f60208201905062000a415f830184620009e0565b92915050565b6115538062000a555f395ff3fe608060405234801561000f575f80fd5b50600436106100cd575f3560e01c806370a082311161008a57806395d89b411161006457806395d89b4114610239578063a9059cbb14610257578063dd62ed3e14610287578063f8856bf2146102b7576100cd565b806370a08231146101bb57806387fc29ed146101eb5780638da5cb5b1461021b576100cd565b806306fdde03146100d1578063095ea7b3146100ef57806318160ddd1461011f57806323b872dd1461013d578063313ce5671461016d578063591185891461018b575b5f80fd5b6100d96102e7565b6040516100e69190610eaa565b60405180910390f35b61010960048036038101906101049190610f5b565b610377565b6040516101169190610fb3565b60405180910390f35b610127610399565b6040516101349190610fdb565b60405180910390f35b61015760048036038101906101529190610ff4565b6103a2565b6040516101649190610fb3565b60405180910390f35b6101756103d0565b604051610182919061105f565b60405180910390f35b6101a560048036038101906101a09190611078565b6103d8565b6040516101b291906110b2565b60405180910390f35b6101d560048036038101906101d09190611078565b61042b565b6040516101e29190610fdb565b60405180910390f35b61020560048036038101906102009190611078565b610470565b6040516102129190610fdb565b60405180910390f35b610223610485565b60405161023091906110b2565b60405180910390f35b6102416104aa565b60405161024e9190610eaa565b60405180910390f35b610271600480360381019061026c9190610f5b565b61053a565b60405161027e9190610fb3565b60405180910390f35b6102a1600480360381019061029c91906110cb565b61055c565b6040516102ae9190610fdb565b60405180910390f35b6102d160048036038101906102cc9190611078565b6105de565b6040516102de9190610eaa565b60405180910390f35b6060600380546102f690611136565b80601f016020809104026020016040519081016040528092919081815260200182805461032290611136565b801561036d5780601f106103445761010080835404028352916020019161036d565b820191905f5260205f20905b81548152906001019060200180831161035057829003601f168201915b5050505050905090565b5f80610381610674565b905061038e81858561067b565b600191505092915050565b5f600254905090565b5f806103ac610674565b90506103b985828561068d565b6103c4858585610720565b60019150509392505050565b5f6012905090565b5f806103e38361042b565b11610423576040517f08c379a000000000000000000000000000000000000000000000000000000000815260040161041a906111b0565b60405180910390fd5b819050919050565b5f805f8373ffffffffffffffffffffffffffffffffffffffff1673ffffffffffffffffffffffffffffffffffffffff1681526020019081526020015f20549050919050565b6006602052805f5260405f205f915090505481565b60055f9054906101000a900473ffffffffffffffffffffffffffffffffffffffff1681565b6060600480546104b990611136565b80601f01602080910402602001604051908101604052809291908181526020018280546104e590611136565b80156105305780601f1061050757610100808354040283529160200191610530565b820191905f5260205f20905b81548152906001019060200180831161051357829003601f168201915b5050505050905090565b5f80610544610674565b9050610551818585610720565b600191505092915050565b5f60015f8473ffffffffffffffffffffffffffffffffffffffff1673ffffffffffffffffffffffffffffffffffffffff1681526020019081526020015f205f8373ffffffffffffffffffffffffffffffffffffffff1673ffffffffffffffffffffffffffffffffffffffff1681526020019081526020015f2054905092915050565b60605f60065f8473ffffffffffffffffffffffffffffffffffffffff1673ffffffffffffffffffffffffffffffffffffffff1681526020019081526020015f205490505f8103610663576040517f08c379a000000000000000000000000000000000000000000000000000000000815260040161065a90611218565b60405180910390fd5b61066c81610810565b915050919050565b5f33905090565b61068883838360016108d1565b505050565b5f610698848461055c565b90507fffffffffffffffffffffffffffffffffffffffffffffffffffffffffffffffff81101561071a578181101561070b578281836040517ffb8f41b200000000000000000000000000000000000000000000000000000000815260040161070293929190611236565b60405180910390fd5b61071984848484035f6108d1565b5b50505050565b5f73ffffffffffffffffffffffffffffffffffffffff168373ffffffffffffffffffffffffffffffffffffffff1603610790575f6040517f96c6fd1e00000000000000000000000000000000000000000000000000000000815260040161078791906110b2565b60405180910390fd5b5f73ffffffffffffffffffffffffffffffffffffffff168273ffffffffffffffffffffffffffffffffffffffff1603610800575f6040517fec442f050000000000000000000000000000000000000000000000000000000081526004016107f791906110b2565b60405180910390fd5b61080b838383610aa0565b505050565b60605f6301e1853e8361082391906112c5565b6107b261083091906112f5565b90505f60016228206f6301e1853e866108499190611328565b61085391906112c5565b61085d91906112f5565b90505f6001620151806228206f876108759190611328565b61087f91906112c5565b61088991906112f5565b905061089481610cb9565b61089d83610cb9565b6108a685610cb9565b6040516020016108b8939291906113dc565b6040516020818303038152906040529350505050919050565b5f73ffffffffffffffffffffffffffffffffffffffff168473ffffffffffffffffffffffffffffffffffffffff1603610941575f6040517fe602df0500000000000000000000000000000000000000000000000000000000815260040161093891906110b2565b60405180910390fd5b5f73ffffffffffffffffffffffffffffffffffffffff168373ffffffffffffffffffffffffffffffffffffffff16036109b1575f6040517f94280d620000000000000000000000000000000000000000000000000000000081526004016109a891906110b2565b60405180910390fd5b8160015f8673ffffffffffffffffffffffffffffffffffffffff1673ffffffffffffffffffffffffffffffffffffffff1681526020019081526020015f205f8573ffffffffffffffffffffffffffffffffffffffff1673ffffffffffffffffffffffffffffffffffffffff1681526020019081526020015f20819055508015610a9a578273ffffffffffffffffffffffffffffffffffffffff168473ffffffffffffffffffffffffffffffffffffffff167f8c5be1e5ebec7d5bd14f71427d1e84f3dd0314c0f7b2291e5b200ac8c7c3b92584604051610a919190610fdb565b60405180910390a35b50505050565b5f73ffffffffffffffffffffffffffffffffffffffff168373ffffffffffffffffffffffffffffffffffffffff1603610af0578060025f828254610ae491906112f5565b92505081905550610bbe565b5f805f8573ffffffffffffffffffffffffffffffffffffffff1673ffffffffffffffffffffffffffffffffffffffff1681526020019081526020015f2054905081811015610b79578381836040517fe450d38c000000000000000000000000000000000000000000000000000000008152600401610b7093929190611236565b60405180910390fd5b8181035f808673ffffffffffffffffffffffffffffffffffffffff1673ffffffffffffffffffffffffffffffffffffffff1681526020019081526020015f2081905550505b5f73ffffffffffffffffffffffffffffffffffffffff168273ffffffffffffffffffffffffffffffffffffffff1603610c05578060025f8282540392505081905550610c4f565b805f808473ffffffffffffffffffffffffffffffffffffffff1673ffffffffffffffffffffffffffffffffffffffff1681526020019081526020015f205f82825401925050819055505b8173ffffffffffffffffffffffffffffffffffffffff168373ffffffffffffffffffffffffffffffffffffffff167fddf252ad1be2c89b69c2b068fc378daa952ba7f163c4a11628f55a4df523b3ef83604051610cac9190610fdb565b60405180910390a3505050565b60605f8203610cff576040518060400160405280600181526020017f30000000000000000000000000000000000000000000000000000000000000008152509050610e1b565b5f8290505f5b5f8214610d2e578080610d1790611422565b915050600a82610d2791906112c5565b9150610d05565b5f8167ffffffffffffffff811115610d4957610d48611469565b5b6040519080825280601f01601f191660200182016040528015610d7b5781602001600182028036833780820191505090505b5090505f600183610d8c9190611496565b90505b5f8614610e1357600a86610da39190611328565b6030610daf91906112f5565b60f81b828280610dbe906114c9565b935081518110610dd157610dd06114f0565b5b60200101907effffffffffffffffffffffffffffffffffffffffffffffffffffffffffffff191690815f1a905350600a86610e0c91906112c5565b9550610d8f565b819450505050505b919050565b5f81519050919050565b5f82825260208201905092915050565b5f5b83811015610e57578082015181840152602081019050610e3c565b5f8484015250505050565b5f601f19601f8301169050919050565b5f610e7c82610e20565b610e868185610e2a565b9350610e96818560208601610e3a565b610e9f81610e62565b840191505092915050565b5f6020820190508181035f830152610ec28184610e72565b905092915050565b5f80fd5b5f73ffffffffffffffffffffffffffffffffffffffff82169050919050565b5f610ef782610ece565b9050919050565b610f0781610eed565b8114610f11575f80fd5b50565b5f81359050610f2281610efe565b92915050565b5f819050919050565b610f3a81610f28565b8114610f44575f80fd5b50565b5f81359050610f5581610f31565b92915050565b5f8060408385031215610f7157610f70610eca565b5b5f610f7e85828601610f14565b9250506020610f8f85828601610f47565b9150509250929050565b5f8115159050919050565b610fad81610f99565b82525050565b5f602082019050610fc65f830184610fa4565b92915050565b610fd581610f28565b82525050565b5f602082019050610fee5f830184610fcc565b92915050565b5f805f6060848603121561100b5761100a610eca565b5b5f61101886828701610f14565b935050602061102986828701610f14565b925050604061103a86828701610f47565b9150509250925092565b5f60ff82169050919050565b61105981611044565b82525050565b5f6020820190506110725f830184611050565b92915050565b5f6020828403121561108d5761108c610eca565b5b5f61109a84828501610f14565b91505092915050565b6110ac81610eed565b82525050565b5f6020820190506110c55f8301846110a3565b92915050565b5f80604083850312156110e1576110e0610eca565b5b5f6110ee85828601610f14565b92505060206110ff85828601610f14565b9150509250929050565b7f4e487b71000000000000000000000000000000000000000000000000000000005f52602260045260245ffd5b5f600282049050600182168061114d57607f821691505b6020821081036111605761115f611109565b5b50919050565b7f4e6f20746f6b656e732068656c642062792074686973206163636f756e7400005f82015250565b5f61119a601e83610e2a565b91506111a582611166565b602082019050919050565b5f6020820190508181035f8301526111c78161118e565b9050919050565b7f4e6f207472616e73616374696f6e7320666f756e6400000000000000000000005f82015250565b5f611202601583610e2a565b915061120d826111ce565b602082019050919050565b5f6020820190508181035f83015261122f816111f6565b9050919050565b5f6060820190506112495f8301866110a3565b6112566020830185610fcc565b6112636040830184610fcc565b949350505050565b7f4e487b71000000000000000000000000000000000000000000000000000000005f52601260045260245ffd5b7f4e487b71000000000000000000000000000000000000000000000000000000005f52601160045260245ffd5b5f6112cf82610f28565b91506112da83610f28565b9250826112ea576112e961126b565b5b828204905092915050565b5f6112ff82610f28565b915061130a83610f28565b925082820190508082111561132257611321611298565b5b92915050565b5f61133282610f28565b915061133d83610f28565b92508261134d5761134c61126b565b5b828206905092915050565b5f81905092915050565b5f61136c82610e20565b6113768185611358565b9350611386818560208601610e3a565b80840191505092915050565b7f2f000000000000000000000000000000000000000000000000000000000000005f82015250565b5f6113c6600183611358565b91506113d182611392565b600182019050919050565b5f6113e78286611362565b91506113f2826113ba565b91506113fe8285611362565b9150611409826113ba565b91506114158284611362565b9150819050949350505050565b5f61142c82610f28565b91507fffffffffffffffffffffffffffffffffffffffffffffffffffffffffffffffff820361145e5761145d611298565b5b600182019050919050565b7f4e487b71000000000000000000000000000000000000000000000000000000005f52604160045260245ffd5b5f6114a082610f28565b91506114ab83610f28565b92508282039050818111156114c3576114c2611298565b5b92915050565b5f6114d382610f28565b91505f82036114e5576114e4611298565b5b600182039050919050565b7f4e487b71000000000000000000000000000000000000000000000000000000005f52603260045260245ffdfea26469706673582212206275584f5e2c40ca79e9b090eb0592b700c60404b5ef46647e86c2af055babff64736f6c63430008140033",
  "immutableReferences": {},
  "source": "// SPDX-License-Identifier: MIT\r\npragma solidity ^0.8.0;\r\n\r\nimport \"@openzeppelin/contracts/token/ERC20/ERC20.sol\";\r\n\r\ncontract UniversityToken is ERC20 {\r\n    address public owner;\r\n    mapping(address => uint256) public lastTransactionTimestamps;\r\n\r\n    constructor() ERC20(\"UniversityGroupToken\", \"UGT\") {\r\n        _mint(msg.sender, 2000 * 10 ** decimals());\r\n        owner = msg.sender;\r\n    }\r\n\r\n    function getLastTransactionTimestamp(address account) public view returns (string memory) {\r\n        uint256 timestamp = lastTransactionTimestamps[account];\r\n        require(timestamp != 0, \"No transactions found\");\r\n        return _convertTimestampToDateTime(timestamp);\r\n    }\r\n\r\n    function getTransactionSender(address account) public view returns (address) {\r\n        require(balanceOf(account) > 0, \"No tokens held by this account\");\r\n        return account;\r\n    }\r\n\r\n    function _convertTimestampToDateTime(uint256 timestamp) internal pure returns (string memory) {\r\n        uint256 year = 1970 + timestamp / 31556926;\r\n        uint256 month = (timestamp % 31556926) / 2629743 + 1;\r\n        uint256 day = (timestamp % 2629743) / 86400 + 1;\r\n        return string(abi.encodePacked(uint2str(day), \"/\", uint2str(month), \"/\", uint2str(year)));\r\n    }\r\n\r\n    function uint2str(uint256 _i) internal pure returns (string memory) {\r\n        if (_i == 0) {\r\n            return \"0\";\r\n        }\r\n        uint256 j = _i;\r\n        uint256 len;\r\n        while (j != 0) {\r\n            len++;\r\n            j /= 10;\r\n        }\r\n        bytes memory bstr = new bytes(len);\r\n        uint256 k = len - 1;\r\n        while (_i != 0) {\r\n            bstr[k--] = bytes1(uint8(48 + _i % 10));\r\n            _i /= 10;\r\n        }\r\n        return string(bstr);\r\n    }\r\n}\r\n",
  "sourcePath": "C:\\Users\\Danil\\Desktop\\\\Blockchain_Techologies\\UniversityToken\\contracts\\UniversityToken.sol",
  "compiler": {
    "name": "solc",
    "version": "0.8.20+commit.a1b79de6.Emscripten.clang"
  },
  "schemaVersion": "3.4.16",
  "updatedAt": "2025-01-20T10:25:39.921Z",
  "networkType": "ethereum",
  "devdoc": {
    "errors": {
      "ERC20InsufficientAllowance(address,uint256,uint256)": [
        {
          "details": "Indicates a failure with the `spender`s `allowance`. Used in transfers.",
          "params": {
            "allowance": "Amount of tokens a `spender` is allowed to operate with.",
            "needed": "Minimum amount required to perform a transfer.",
            "spender": "Address that may be allowed to operate on tokens without being their owner."
          }
        }
      ],
      "ERC20InsufficientBalance(address,uint256,uint256)": [
        {
          "details": "Indicates an error related to the current `balance` of a `sender`. Used in transfers.",
          "params": {
            "balance": "Current balance for the interacting account.",
            "needed": "Minimum amount required to perform a transfer.",
            "sender": "Address whose tokens are being transferred."
          }
        }
      ],
      "ERC20InvalidApprover(address)": [
        {
          "details": "Indicates a failure with the `approver` of a token to be approved. Used in approvals.",
          "params": {
            "approver": "Address initiating an approval operation."
          }
        }
      ],
      "ERC20InvalidReceiver(address)": [
        {
          "details": "Indicates a failure with the token `receiver`. Used in transfers.",
          "params": {
            "receiver": "Address to which tokens are being transferred."
          }
        }
      ],
      "ERC20InvalidSender(address)": [
        {
          "details": "Indicates a failure with the token `sender`. Used in transfers.",
          "params": {
            "sender": "Address whose tokens are being transferred."
          }
        }
      ],
      "ERC20InvalidSpender(address)": [
        {
          "details": "Indicates a failure with the `spender` to be approved. Used in approvals.",
          "params": {
            "spender": "Address that may be allowed to operate on tokens without being their owner."
          }
        }
      ]
    },
    "events": {
      "Approval(address,address,uint256)": {
        "details": "Emitted when the allowance of a `spender` for an `owner` is set by a call to {approve}. `value` is the new allowance."
      },
      "Transfer(address,address,uint256)": {
        "details": "Emitted when `value` tokens are moved from one account (`from`) to another (`to`). Note that `value` may be zero."
      }
    },
    "kind": "dev",
    "methods": {
      "allowance(address,address)": {
        "details": "See {IERC20-allowance}."
      },
      "approve(address,uint256)": {
        "details": "See {IERC20-approve}. NOTE: If `value` is the maximum `uint256`, the allowance is not updated on `transferFrom`. This is semantically equivalent to an infinite approval. Requirements: - `spender` cannot be the zero address."
      },
      "balanceOf(address)": {
        "details": "See {IERC20-balanceOf}."
      },
      "decimals()": {
        "details": "Returns the number of decimals used to get its user representation. For example, if `decimals` equals `2`, a balance of `505` tokens should be displayed to a user as `5.05` (`505 / 10 ** 2`). Tokens usually opt for a value of 18, imitating the relationship between Ether and Wei. This is the default value returned by this function, unless it's overridden. NOTE: This information is only used for _display_ purposes: it in no way affects any of the arithmetic of the contract, including {IERC20-balanceOf} and {IERC20-transfer}."
      },
      "name()": {
        "details": "Returns the name of the token."
      },
      "symbol()": {
        "details": "Returns the symbol of the token, usually a shorter version of the name."
      },
      "totalSupply()": {
        "details": "See {IERC20-totalSupply}."
      },
      "transfer(address,uint256)": {
        "details": "See {IERC20-transfer}. Requirements: - `to` cannot be the zero address. - the caller must have a balance of at least `value`."
      },
      "transferFrom(address,address,uint256)": {
        "details": "See {IERC20-transferFrom}. Skips emitting an {Approval} event indicating an allowance update. This is not required by the ERC. See {xref-ERC20-_approve-address-address-uint256-bool-}[_approve]. NOTE: Does not update the allowance if the current allowance is the maximum `uint256`. Requirements: - `from` and `to` cannot be the zero address. - `from` must have a balance of at least `value`. - the caller must have allowance for ``from``'s tokens of at least `value`."
      }
    },
    "version": 1
  },
  "userdoc": {
    "kind": "user",
    "methods": {},
    "version": 1
  }
}