{
  "_format": "hh-sol-artifact-1",
  "contractName": "UniversityToken",
  "sourceName": "contracts/UniversityToken.sol",
  "abi": [
    {
      "inputs": [
        {
          "internalType": "uint256",
          "name": "initialSupply",
          "type": "uint256"
        }
      ],
      "stateMutability": "nonpayable",
      "type": "constructor"
    },
    {
      "anonymous": false,
      "inputs": [
        {
          "indexed": true,
          "internalType": "address",
          "name": "owner",
          "type": "address"
        },
        {
          "indexed": true,
          "internalType": "address",
          "name": "spender",
          "type": "address"
        },
        {
          "indexed": false,
          "internalType": "uint256",
          "name": "value",
          "type": "uint256"
        }
      ],
      "name": "Approval",
      "type": "event"
    },
    {
      "anonymous": false,
      "inputs": [
        {
          "indexed": true,
          "internalType": "address",
          "name": "from",
          "type": "address"
        },
        {
          "indexed": true,
          "internalType": "address",
          "name": "to",
          "type": "address"
        },
        {
          "indexed": false,
          "internalType": "uint256",
          "name": "value",
          "type": "uint256"
        }
      ],
      "name": "Transfer",
      "type": "event"
    },
    {
      "inputs": [
        {
          "internalType": "address",
          "name": "owner",
          "type": "address"
        },
        {
          "internalType": "address",
          "name": "spender",
          "type": "address"
        }
      ],
      "name": "allowance",
      "outputs": [
        {
          "internalType": "uint256",
          "name": "",
          "type": "uint256"
        }
      ],
      "stateMutability": "view",
      "type": "function"
    },
    {
      "inputs": [
        {
          "internalType": "address",
          "name": "spender",
          "type": "address"
        },
        {
          "internalType": "uint256",
          "name": "amount",
          "type": "uint256"
        }
      ],
      "name": "approve",
      "outputs": [
        {
          "internalType": "bool",
          "name": "",
          "type": "bool"
        }
      ],
      "stateMutability": "nonpayable",
      "type": "function"
    },
    {
      "inputs": [
        {
          "internalType": "address",
          "name": "account",
          "type": "address"
        }
      ],
      "name": "balanceOf",
      "outputs": [
        {
          "internalType": "uint256",
          "name": "",
          "type": "uint256"
        }
      ],
      "stateMutability": "view",
      "type": "function"
    },
    {
      "inputs": [],
      "name": "decimals",
      "outputs": [
        {
          "internalType": "uint8",
          "name": "",
          "type": "uint8"
        }
      ],
      "stateMutability": "view",
      "type": "function"
    },
    {
      "inputs": [
        {
          "internalType": "address",
          "name": "spender",
          "type": "address"
        },
        {
          "internalType": "uint256",
          "name": "subtractedValue",
          "type": "uint256"
        }
      ],
      "name": "decreaseAllowance",
      "outputs": [
        {
          "internalType": "bool",
          "name": "",
          "type": "bool"
        }
      ],
      "stateMutability": "nonpayable",
      "type": "function"
    },
    {
      "inputs": [
        {
          "internalType": "address",
          "name": "account",
          "type": "address"
        }
      ],
      "name": "getLastTransactionTimestamp",
      "outputs": [
        {
          "internalType": "string",
          "name": "",
          "type": "string"
        }
      ],
      "stateMutability": "view",
      "type": "function"
    },
    {
      "inputs": [
        {
          "internalType": "address",
          "name": "account",
          "type": "address"
        }
      ],
      "name": "getTransactionSender",
      "outputs": [
        {
          "internalType": "address",
          "name": "",
          "type": "address"
        }
      ],
      "stateMutability": "view",
      "type": "function"
    },
    {
      "inputs": [
        {
          "internalType": "address",
          "name": "spender",
          "type": "address"
        },
        {
          "internalType": "uint256",
          "name": "addedValue",
          "type": "uint256"
        }
      ],
      "name": "increaseAllowance",
      "outputs": [
        {
          "internalType": "bool",
          "name": "",
          "type": "bool"
        }
      ],
      "stateMutability": "nonpayable",
      "type": "function"
    },
    {
      "inputs": [
        {
          "internalType": "address",
          "name": "",
          "type": "address"
        }
      ],
      "name": "lastTransactionTimestamps",
      "outputs": [
        {
          "internalType": "uint256",
          "name": "",
          "type": "uint256"
        }
      ],
      "stateMutability": "view",
      "type": "function"
    },
    {
      "inputs": [],
      "name": "name",
      "outputs": [
        {
          "internalType": "string",
          "name": "",
          "type": "string"
        }
      ],
      "stateMutability": "view",
      "type": "function"
    },
    {
      "inputs": [],
      "name": "owner",
      "outputs": [
        {
          "internalType": "address",
          "name": "",
          "type": "address"
        }
      ],
      "stateMutability": "view",
      "type": "function"
    },
    {
      "inputs": [],
      "name": "symbol",
      "outputs": [
        {
          "internalType": "string",
          "name": "",
          "type": "string"
        }
      ],
      "stateMutability": "view",
      "type": "function"
    },
    {
      "inputs": [],
      "name": "totalSupply",
      "outputs": [
        {
          "internalType": "uint256",
          "name": "",
          "type": "uint256"
        }
      ],
      "stateMutability": "view",
      "type": "function"
    },
    {
      "inputs": [
        {
          "internalType": "address",
          "name": "recipient",
          "type": "address"
        },
        {
          "internalType": "uint256",
          "name": "amount",
          "type": "uint256"
        }
      ],
      "name": "transfer",
      "outputs": [
        {
          "internalType": "bool",
          "name": "",
          "type": "bool"
        }
      ],
      "stateMutability": "nonpayable",
      "type": "function"
    },
    {
      "inputs": [
        {
          "internalType": "address",
          "name": "sender",
          "type": "address"
        },
        {
          "internalType": "address",
          "name": "recipient",
          "type": "address"
        },
        {
          "internalType": "uint256",
          "name": "amount",
          "type": "uint256"
        }
      ],
      "name": "transferFrom",
      "outputs": [
        {
          "internalType": "bool",
          "name": "",
          "type": "bool"
        }
      ],
      "stateMutability": "nonpayable",
      "type": "function"
    }
  ],
  "bytecode": "0x60806040523480156200001157600080fd5b50604051620023c6380380620023c68339818101604052810190620000379190620003ae565b6040518060400160405280601481526020017f556e697665727369747947726f7570546f6b656e0000000000000000000000008152506040518060400160405280600381526020017f55475400000000000000000000000000000000000000000000000000000000008152508160039080519060200190620000bb929190620002e7565b508060049080519060200190620000d4929190620002e7565b5050506200011333620000ec6200015b60201b60201c565b600a620000fa919062000535565b8362000107919062000672565b6200016460201b60201c565b33600560006101000a81548173ffffffffffffffffffffffffffffffffffffffff021916908373ffffffffffffffffffffffffffffffffffffffff16021790555050620007a5565b60006012905090565b600073ffffffffffffffffffffffffffffffffffffffff168273ffffffffffffffffffffffffffffffffffffffff161415620001d7576040517f08c379a0000000000000000000000000000000000000000000000000000000008152600401620001ce906200042d565b60405180910390fd5b620001eb60008383620002dd60201b60201c565b8060026000828254620001ff91906200047d565b92505081905550806000808473ffffffffffffffffffffffffffffffffffffffff1673ffffffffffffffffffffffffffffffffffffffff16815260200190815260200160002060008282546200025691906200047d565b925050819055508173ffffffffffffffffffffffffffffffffffffffff16600073ffffffffffffffffffffffffffffffffffffffff167fddf252ad1be2c89b69c2b068fc378daa952ba7f163c4a11628f55a4df523b3ef83604051620002bd91906200044f565b60405180910390a3620002d960008383620002e260201b60201c565b5050565b505050565b505050565b828054620002f590620006ea565b90600052602060002090601f01602090048101928262000319576000855562000365565b82601f106200033457805160ff191683800117855562000365565b8280016001018555821562000365579182015b828111156200036457825182559160200191906001019062000347565b5b50905062000374919062000378565b5090565b5b808211156200039357600081600090555060010162000379565b5090565b600081519050620003a8816200078b565b92915050565b600060208284031215620003c157600080fd5b6000620003d18482850162000397565b91505092915050565b6000620003e9601f836200046c565b91507f45524332303a206d696e7420746f20746865207a65726f2061646472657373006000830152602082019050919050565b6200042781620006d3565b82525050565b600060208201905081810360008301526200044881620003da565b9050919050565b60006020820190506200046660008301846200041c565b92915050565b600082825260208201905092915050565b60006200048a82620006d3565b91506200049783620006d3565b9250827fffffffffffffffffffffffffffffffffffffffffffffffffffffffffffffffff03821115620004cf57620004ce62000720565b5b828201905092915050565b6000808291508390505b60018511156200052c5780860481111562000504576200050362000720565b5b6001851615620005145780820291505b808102905062000524856200077e565b9450620004e4565b94509492505050565b60006200054282620006d3565b91506200054f83620006dd565b92506200057e7fffffffffffffffffffffffffffffffffffffffffffffffffffffffffffffffff848462000586565b905092915050565b6000826200059857600190506200066b565b81620005a857600090506200066b565b8160018114620005c15760028114620005cc5762000602565b60019150506200066b565b60ff841115620005e157620005e062000720565b5b8360020a915084821115620005fb57620005fa62000720565b5b506200066b565b5060208310610133831016604e8410600b84101617156200063c5782820a90508381111562000636576200063562000720565b5b6200066b565b6200064b8484846001620004da565b9250905081840481111562000665576200066462000720565b5b81810290505b9392505050565b60006200067f82620006d3565b91506200068c83620006d3565b9250817fffffffffffffffffffffffffffffffffffffffffffffffffffffffffffffffff0483118215151615620006c857620006c762000720565b5b828202905092915050565b6000819050919050565b600060ff82169050919050565b600060028204905060018216806200070357607f821691505b602082108114156200071a57620007196200074f565b5b50919050565b7f4e487b7100000000000000000000000000000000000000000000000000000000600052601160045260246000fd5b7f4e487b7100000000000000000000000000000000000000000000000000000000600052602260045260246000fd5b60008160011c9050919050565b6200079681620006d3565b8114620007a257600080fd5b50565b611c1180620007b56000396000f3fe608060405234801561001057600080fd5b50600436106100f55760003560e01c806370a0823111610097578063a457c2d711610066578063a457c2d7146102b0578063a9059cbb146102e0578063dd62ed3e14610310578063f8856bf214610340576100f5565b806370a082311461021457806387fc29ed146102445780638da5cb5b1461027457806395d89b4114610292576100f5565b806323b872dd116100d357806323b872dd14610166578063313ce5671461019657806339509351146101b457806359118589146101e4576100f5565b806306fdde03146100fa578063095ea7b31461011857806318160ddd14610148575b600080fd5b610102610370565b60405161010f9190611737565b60405180910390f35b610132600480360381019061012d919061120e565b610402565b60405161013f919061171c565b60405180910390f35b610150610420565b60405161015d9190611899565b60405180910390f35b610180600480360381019061017b91906111bf565b61042a565b60405161018d919061171c565b60405180910390f35b61019e610522565b6040516101ab91906118b4565b60405180910390f35b6101ce60048036038101906101c9919061120e565b61052b565b6040516101db919061171c565b60405180910390f35b6101fe60048036038101906101f9919061115a565b6105d7565b60405161020b9190611701565b60405180910390f35b61022e6004803603810190610229919061115a565b61062b565b60405161023b9190611899565b60405180910390f35b61025e6004803603810190610259919061115a565b610673565b60405161026b9190611899565b60405180910390f35b61027c61068b565b6040516102899190611701565b60405180910390f35b61029a6106b1565b6040516102a79190611737565b60405180910390f35b6102ca60048036038101906102c5919061120e565b610743565b6040516102d7919061171c565b60405180910390f35b6102fa60048036038101906102f5919061120e565b61082e565b604051610307919061171c565b60405180910390f35b61032a60048036038101906103259190611183565b6108cf565b6040516103379190611899565b60405180910390f35b61035a6004803603810190610355919061115a565b610956565b6040516103679190611737565b60405180910390f35b60606003805461037f90611a63565b80601f01602080910402602001604051908101604052809291908181526020018280546103ab90611a63565b80156103f85780601f106103cd576101008083540402835291602001916103f8565b820191906000526020600020905b8154815290600101906020018083116103db57829003601f168201915b5050505050905090565b600061041661040f6109f1565b84846109f9565b6001905092915050565b6000600254905090565b6000610437848484610bc4565b6000600160008673ffffffffffffffffffffffffffffffffffffffff1673ffffffffffffffffffffffffffffffffffffffff16815260200190815260200160002060006104826109f1565b73ffffffffffffffffffffffffffffffffffffffff1673ffffffffffffffffffffffffffffffffffffffff16815260200190815260200160002054905082811015610502576040517f08c379a00000000000000000000000000000000000000000000000000000000081526004016104f990611819565b60405180910390fd5b6105168561050e6109f1565b8584036109f9565b60019150509392505050565b60006012905090565b60006105cd6105386109f1565b8484600160006105466109f1565b73ffffffffffffffffffffffffffffffffffffffff1673ffffffffffffffffffffffffffffffffffffffff16815260200190815260200160002060008873ffffffffffffffffffffffffffffffffffffffff1673ffffffffffffffffffffffffffffffffffffffff168152602001908152602001600020546105c891906118f6565b6109f9565b6001905092915050565b6000806105e38361062b565b11610623576040517f08c379a000000000000000000000000000000000000000000000000000000000815260040161061a906117d9565b60405180910390fd5b819050919050565b60008060008373ffffffffffffffffffffffffffffffffffffffff1673ffffffffffffffffffffffffffffffffffffffff168152602001908152602001600020549050919050565b60066020528060005260406000206000915090505481565b600560009054906101000a900473ffffffffffffffffffffffffffffffffffffffff1681565b6060600480546106c090611a63565b80601f01602080910402602001604051908101604052809291908181526020018280546106ec90611a63565b80156107395780601f1061070e57610100808354040283529160200191610739565b820191906000526020600020905b81548152906001019060200180831161071c57829003601f168201915b5050505050905090565b600080600160006107526109f1565b73ffffffffffffffffffffffffffffffffffffffff1673ffffffffffffffffffffffffffffffffffffffff16815260200190815260200160002060008573ffffffffffffffffffffffffffffffffffffffff1673ffffffffffffffffffffffffffffffffffffffff1681526020019081526020016000205490508281101561080f576040517f08c379a000000000000000000000000000000000000000000000000000000000815260040161080690611879565b60405180910390fd5b61082361081a6109f1565b858584036109f9565b600191505092915050565b60008061083b8484610e45565b905042600660003373ffffffffffffffffffffffffffffffffffffffff1673ffffffffffffffffffffffffffffffffffffffff1681526020019081526020016000208190555042600660008673ffffffffffffffffffffffffffffffffffffffff1673ffffffffffffffffffffffffffffffffffffffff168152602001908152602001600020819055508091505092915050565b6000600160008473ffffffffffffffffffffffffffffffffffffffff1673ffffffffffffffffffffffffffffffffffffffff16815260200190815260200160002060008373ffffffffffffffffffffffffffffffffffffffff1673ffffffffffffffffffffffffffffffffffffffff16815260200190815260200160002054905092915050565b60606000600660008473ffffffffffffffffffffffffffffffffffffffff1673ffffffffffffffffffffffffffffffffffffffff16815260200190815260200160002054905060008114156109e0576040517f08c379a00000000000000000000000000000000000000000000000000000000081526004016109d7906117f9565b60405180910390fd5b6109e981610e63565b915050919050565b600033905090565b600073ffffffffffffffffffffffffffffffffffffffff168373ffffffffffffffffffffffffffffffffffffffff161415610a69576040517f08c379a0000000000000000000000000000000000000000000000000000000008152600401610a6090611859565b60405180910390fd5b600073ffffffffffffffffffffffffffffffffffffffff168273ffffffffffffffffffffffffffffffffffffffff161415610ad9576040517f08c379a0000000000000000000000000000000000000000000000000000000008152600401610ad090611779565b60405180910390fd5b80600160008573ffffffffffffffffffffffffffffffffffffffff1673ffffffffffffffffffffffffffffffffffffffff16815260200190815260200160002060008473ffffffffffffffffffffffffffffffffffffffff1673ffffffffffffffffffffffffffffffffffffffff168152602001908152602001600020819055508173ffffffffffffffffffffffffffffffffffffffff168373ffffffffffffffffffffffffffffffffffffffff167f8c5be1e5ebec7d5bd14f71427d1e84f3dd0314c0f7b2291e5b200ac8c7c3b92583604051610bb79190611899565b60405180910390a3505050565b600073ffffffffffffffffffffffffffffffffffffffff168373ffffffffffffffffffffffffffffffffffffffff161415610c34576040517f08c379a0000000000000000000000000000000000000000000000000000000008152600401610c2b90611839565b60405180910390fd5b600073ffffffffffffffffffffffffffffffffffffffff168273ffffffffffffffffffffffffffffffffffffffff161415610ca4576040517f08c379a0000000000000000000000000000000000000000000000000000000008152600401610c9b90611759565b60405180910390fd5b610caf838383610f6a565b60008060008573ffffffffffffffffffffffffffffffffffffffff1673ffffffffffffffffffffffffffffffffffffffff16815260200190815260200160002054905081811015610d35576040517f08c379a0000000000000000000000000000000000000000000000000000000008152600401610d2c90611799565b60405180910390fd5b8181036000808673ffffffffffffffffffffffffffffffffffffffff1673ffffffffffffffffffffffffffffffffffffffff16815260200190815260200160002081905550816000808573ffffffffffffffffffffffffffffffffffffffff1673ffffffffffffffffffffffffffffffffffffffff1681526020019081526020016000206000828254610dc891906118f6565b925050819055508273ffffffffffffffffffffffffffffffffffffffff168473ffffffffffffffffffffffffffffffffffffffff167fddf252ad1be2c89b69c2b068fc378daa952ba7f163c4a11628f55a4df523b3ef84604051610e2c9190611899565b60405180910390a3610e3f848484610f6f565b50505050565b6000610e59610e526109f1565b8484610bc4565b6001905092915050565b606060008211610ea8576040517f08c379a0000000000000000000000000000000000000000000000000000000008152600401610e9f906117b9565b60405180910390fd5b60006301e1338083610eba919061194c565b6107b2610ec791906118f6565b9050600060016228de806301e1338086610ee19190611ade565b610eeb919061194c565b610ef591906118f6565b905060006001620151806228de8087610f0e9190611ade565b610f18919061194c565b610f2291906118f6565b9050610f2d81610f74565b610f3683610f74565b610f3f85610f74565b604051602001610f51939291906116ba565b6040516020818303038152906040529350505050919050565b505050565b505050565b60606000821415610fbc576040518060400160405280600181526020017f3000000000000000000000000000000000000000000000000000000000000000815250905061112b565b600082905060005b60008214610fee578080610fd790611a95565b915050600a82610fe7919061194c565b9150610fc4565b60008167ffffffffffffffff811115611030577f4e487b7100000000000000000000000000000000000000000000000000000000600052604160045260246000fd5b6040519080825280601f01601f1916602001820160405280156110625781602001600182028036833780820191505090505b5090506000600183611074919061197d565b90505b6000861461112357600a8661108c9190611ade565b603061109891906118f6565b60f81b8282806110a790611a39565b9350815181106110e0577f4e487b7100000000000000000000000000000000000000000000000000000000600052603260045260246000fd5b60200101907effffffffffffffffffffffffffffffffffffffffffffffffffffffffffffff1916908160001a905350600a8661111c919061194c565b9550611077565b819450505050505b919050565b60008135905061113f81611bad565b92915050565b60008135905061115481611bc4565b92915050565b60006020828403121561116c57600080fd5b600061117a84828501611130565b91505092915050565b6000806040838503121561119657600080fd5b60006111a485828601611130565b92505060206111b585828601611130565b9150509250929050565b6000806000606084860312156111d457600080fd5b60006111e286828701611130565b93505060206111f386828701611130565b925050604061120486828701611145565b9150509250925092565b6000806040838503121561122157600080fd5b600061122f85828601611130565b925050602061124085828601611145565b9150509250929050565b611253816119b1565b82525050565b611262816119c3565b82525050565b6000611273826118cf565b61127d81856118da565b935061128d818560208601611a06565b61129681611b9c565b840191505092915050565b60006112ac826118cf565b6112b681856118eb565b93506112c6818560208601611a06565b80840191505092915050565b60006112df6023836118da565b91507f45524332303a207472616e7366657220746f20746865207a65726f206164647260008301527f65737300000000000000000000000000000000000000000000000000000000006020830152604082019050919050565b60006113456022836118da565b91507f45524332303a20617070726f766520746f20746865207a65726f20616464726560008301527f73730000000000000000000000000000000000000000000000000000000000006020830152604082019050919050565b60006113ab6026836118da565b91507f45524332303a207472616e7366657220616d6f756e742065786365656473206260008301527f616c616e636500000000000000000000000000000000000000000000000000006020830152604082019050919050565b60006114116011836118da565b91507f496e76616c69642074696d657374616d700000000000000000000000000000006000830152602082019050919050565b6000611451601e836118da565b91507f4e6f20746f6b656e732068656c642062792074686973206163636f756e7400006000830152602082019050919050565b60006114916015836118da565b91507f4e6f207472616e73616374696f6e7320666f756e6400000000000000000000006000830152602082019050919050565b60006114d16028836118da565b91507f45524332303a207472616e7366657220616d6f756e742065786365656473206160008301527f6c6c6f77616e63650000000000000000000000000000000000000000000000006020830152604082019050919050565b60006115376025836118da565b91507f45524332303a207472616e736665722066726f6d20746865207a65726f20616460008301527f64726573730000000000000000000000000000000000000000000000000000006020830152604082019050919050565b600061159d6024836118da565b91507f45524332303a20617070726f76652066726f6d20746865207a65726f2061646460008301527f72657373000000000000000000000000000000000000000000000000000000006020830152604082019050919050565b60006116036025836118da565b91507f45524332303a2064656372656173656420616c6c6f77616e63652062656c6f7760008301527f207a65726f0000000000000000000000000000000000000000000000000000006020830152604082019050919050565b60006116696001836118eb565b91507f2f000000000000000000000000000000000000000000000000000000000000006000830152600182019050919050565b6116a5816119ef565b82525050565b6116b4816119f9565b82525050565b60006116c682866112a1565b91506116d18261165c565b91506116dd82856112a1565b91506116e88261165c565b91506116f482846112a1565b9150819050949350505050565b6000602082019050611716600083018461124a565b92915050565b60006020820190506117316000830184611259565b92915050565b600060208201905081810360008301526117518184611268565b905092915050565b60006020820190508181036000830152611772816112d2565b9050919050565b6000602082019050818103600083015261179281611338565b9050919050565b600060208201905081810360008301526117b28161139e565b9050919050565b600060208201905081810360008301526117d281611404565b9050919050565b600060208201905081810360008301526117f281611444565b9050919050565b6000602082019050818103600083015261181281611484565b9050919050565b60006020820190508181036000830152611832816114c4565b9050919050565b600060208201905081810360008301526118528161152a565b9050919050565b6000602082019050818103600083015261187281611590565b9050919050565b60006020820190508181036000830152611892816115f6565b9050919050565b60006020820190506118ae600083018461169c565b92915050565b60006020820190506118c960008301846116ab565b92915050565b600081519050919050565b600082825260208201905092915050565b600081905092915050565b6000611901826119ef565b915061190c836119ef565b9250827fffffffffffffffffffffffffffffffffffffffffffffffffffffffffffffffff0382111561194157611940611b0f565b5b828201905092915050565b6000611957826119ef565b9150611962836119ef565b92508261197257611971611b3e565b5b828204905092915050565b6000611988826119ef565b9150611993836119ef565b9250828210156119a6576119a5611b0f565b5b828203905092915050565b60006119bc826119cf565b9050919050565b60008115159050919050565b600073ffffffffffffffffffffffffffffffffffffffff82169050919050565b6000819050919050565b600060ff82169050919050565b60005b83811015611a24578082015181840152602081019050611a09565b83811115611a33576000848401525b50505050565b6000611a44826119ef565b91506000821415611a5857611a57611b0f565b5b600182039050919050565b60006002820490506001821680611a7b57607f821691505b60208210811415611a8f57611a8e611b6d565b5b50919050565b6000611aa0826119ef565b91507fffffffffffffffffffffffffffffffffffffffffffffffffffffffffffffffff821415611ad357611ad2611b0f565b5b600182019050919050565b6000611ae9826119ef565b9150611af4836119ef565b925082611b0457611b03611b3e565b5b828206905092915050565b7f4e487b7100000000000000000000000000000000000000000000000000000000600052601160045260246000fd5b7f4e487b7100000000000000000000000000000000000000000000000000000000600052601260045260246000fd5b7f4e487b7100000000000000000000000000000000000000000000000000000000600052602260045260246000fd5b6000601f19601f8301169050919050565b611bb6816119b1565b8114611bc157600080fd5b50565b611bcd816119ef565b8114611bd857600080fd5b5056fea2646970667358221220a03a0961c08df325ed26cad97b163393a1a3a9600526764cabf38714ffeb178864736f6c63430008000033",
  "linkReferences": {},
  "deployedLinkReferences": {}
}